:0E00000037C0A7C1FDCFFCCFFBCFD5C1F9CFD4
:10000E00F8CFABC1F6CFF5CFF4CFF3CFF2CFF1CF20
:10001E00F0CFEFCFEECFEDCF000000434845434B7E
:10002E00006D41004552524F520054455354494EB3
:10003E00470020202020756600202020206F686D4C
:10004E00000001002D4E414E00494E4600000100B9
:10005E000200260001006001280001006D01500021
:10006E000000F894EE27ECBBF1E0FBBFEBBFE5BF61
:10007E008DE0A2E0BB27ED938A95E9F780E094E04E
:10008E00A0E6ED930197E9F7ECE5F0E08591959107
:10009E00009761F0A591B59105901590BF01F00103
:1000AE0005900D920197E1F7FB01F0CFEFE5EDBF63
:1000BE00E4E0EEBFC0E6D1E0B9C1AA93E881E86002
:1000CE0019D3E46017D3EB7FE883A8811AD3A2E09B
:1000DE001CD3C2C2AA93E881E07FAE2FEEDFE88187
:1000EE00E295E07FAE2FE9DFB7C2A8E20ED30FD3C1
:1000FE000ED30DD3A0E2E1DF85ED8A95F1F7A0E2F4
:10010E000CD30BD3DADFA0E1D8DFA0E0D6DFA0E678
:10011E00D4DFA0E0D2DFA0ECD0DF0895AA93C2D640
:10012E00EA81E07FE75F1E2FEA81E295E07FE75FDD
:10013E000E2FA12FE6D21460A12FE3D280E293E01E
:10014E000197F1F7197FA12FDCD280ED97E001978F
:10015E00F1F7A02FD6D20460A02FD3D2097FA02F03
:10016E00D0D2A2E0D2D2A1D623960895DBD2A88116
:10017E00B981EC91E03031F0ED91A883B983AE2FC7
:10018E00CDDFF5CF0FC0CED2E881F981E491E0301A
:10019E0049F0E881F9813196E883F9833197A4918A
:1001AE00BDDFF2CF22960895AA937CD600E611E029
:1001BE00EB81FC816D817E8125D6EE81EA93D8019B
:1001CE00B7D1D801D3DF71D62796089520D6ADD2F8
:1001DE00689420F8ADD2A9E2B0E0D5DFE0B7E860D0
:1001EE00E0BFAAD27894909AABD2979AADD2D7D2DA
:1001FE0055D6E9F39798DCD2ECD22FD6A1D2C09A7D
:10020E00A3D2CDD24BD6E9F3C098D2D2E5D225D621
:10021E00C19A8ED2E1D2E3D2E9D29098E89420F836
:10022E00EEB5ED7FEEBD58C2E5D2F8947ED288D2FF
:10023E0083D2E7D27894C09AE9D207D3F1F30FD3E1
:10024E00A530E0E0BE07E0E08E07E0E09E07D8F0C4
:10025E00F894C098C19AA4EFB1E0BAD3D2D27894F0
:10026E00979AD4D2F2D2F1F303D3F1F79798B1D291
:10027E00E0D57F936F93FF93EF9311D3AF91BF911F
:10028E008F919F910EC0F4D2F1F7C098A5D2D1D51F
:10029E007F936F93FF93EF9302D3AF91BF918F91A3
:1002AE009F9196D4DF01CB01E0E0F0E26EE974E4B9
:1002BE00DDD4FFD200D310C2AAD59CD2F89435D289
:1002CE00C19AA0EDB7E084D337D2399AF6D278949A
:1002DE00C198979AF6D2FAD2E0E0E0936501E093E6
:1002EE006601E0936701E0936801AFD2F1F371D23A
:1002FE00A0D5A0E0B0E68AE994E4B8D47F936F93DA
:10030E00FF93EF93E0916501F091660160916701B3
:10031E0070916801D1D3DF01CB01E0E0F0E060E045
:10032E0070E4A4D4DF01CB01DBD2A0D4AF91BF9196
:10033E008F919F9171D5F5D3BCD2F7D1C19ABBD213
:10034E0028960895D2D2A4E6E0D1B7D27894A1EE41
:10035E00BAE78CED90E43ADF19C0C7D2A1E6B1E05E
:10036E0038D5EF5FFF4F6F4F7F4F38D578D2ECE324
:10037E00F0E060E070E0FED4AE2FE0E020FEE1E0C1
:10038E00EA2321F0C0D2A2E3B0E0FDDEE991EFBF97
:10039E00F991E991B991A99199918991799169917F
:1003AE00F9901990099018950A921A926A937A9375
:1003BE008A939A93AA93BA93EA93FA93EFB7EA932E
:1003CE00399B05C07ED2E7B1E07FE7B921C03899ED
:1003DE0016C077D2389A99D2E0936501F0936601F0
:1003EE006093670170936801E0E0E0936901E09328
:1003FE006A01E0936B01E0936C0168D209C085D26B
:10040E00E0936901F0936A0160936B0170936C0144
:10041E0054D2E991EFBFF991E991B991A9919991CE
:10042E00899179916991199009901895289782D29E
:10043E00E0E0EB83EC83ED83EE83EF83EFE2E7BB4B
:10044E00E0E0E8BBE4BBE5BBE1E8E1BBE4E0E2BB36
:10045E00E0E0E3BFE2BFEFBDE2E4EEBDE0E0EDBD04
:10046E00ECBDE7BDE6BDEBBDEABDE9BDE8BDE2BD55
:10047E00E5BDE4BDE3BDE4E2E9BFEBB7E064EBBF8D
:10048E00E1E0E5BFE0E4EABFE0E0EBB9EAB9E6E8B7
:10049E00E0BDE0E0E0BDE3E3E9B9E7E1E8B9E8E0BB
:1004AE00E0BFE7E0E6B9E0E0E7B9E1E5EDB9E0E0AD
:1004BE00EEB9E6BFC19A01D2F89417DEA4E625D1B3
:1004CE008BD18DD193D1A4EFB1E082D21CD2A8E30F
:1004DE00B0E059DEA9DEEC83FD836E837F832FD2DD
:1004EE00EBDEE7D1EEB5ED7FEEBD0DD228D2E0E02A
:1004FE00F0E06AE774E4FFD309F008F404C0F0D129
:10050E0081D4A0E003C0ECD17DD4A2E04DDEA0ECFE
:10051E00E1DDA0E4B0E018D2F6D1CDD173D4A3E0E2
:10052E0043DEA0ECD7DDA7E4B0E00ED2DECFFFCFE6
:10053E00F9D02497FFD1EFE3EB83B4D4EB85FC85A0
:10054E00EF3FAFEFFA0729F403D2A2E5B0E0C6D031
:10055E007AC0EF3FAFE7FA0729F4FAD1A3E5B0E08E
:10056E00BDD071C0AC85AA2332F4F7D13BD2FAD1FB
:10057E00FED1EDE2EC93A885A73010F0E6E0E88717
:10058E001885E12F1150E03021F0F8D1FCD101D2C5
:10059E00F8CF04D2CDD2E6D110E0E0E0F0E060E892
:1005AE007FE3F7D1FBD1A7D360F0E8D100D2F1D130
:1005BE001F5F173228F0CCD1A7E5B0E08FD043C033
:1005CE00F1CF103021F4D3D1E0E3EC931EC0E12F34
:1005DE001150E030D1F0D2D1D6D1A0E0B0E080E021
:1005EE009FE3A6D2DF01CB0169D0D3D1D7D13ED3C1
:1005FE002CD20E2FBCD1E1D1C1D1AFD35FD2E8D274
:10060E00E2D10AD48ED2AED1E2CFE885E030B9F095
:10061E00AED1EEE2EC93E885E150E887EF5F79F03A
:10062E00D2D1C5D19FD199D110D20E2FA0D1C5D183
:10063E00CAD193D343D2F0D374D294D1ECCFAE813E
:10064E00BF81E0E0EC9331D42D960895AA93E88112
:10065E00EFB9779BFECFEFB121960895D8D37B816A
:10066E006A81F981E88177FB770F67FD7160972FBB
:10067E009E5781F078F0983190F4AA27BB278827EF
:10068E0008948795B795A7959A95D1F7EA23FB23FA
:10069E00682305C0E8947727EE27FF2766276F7734
:1006AE00769508F4606877F9A991B9918991999135
:1006BE00EA17FB076807790797FB0895A8D398D325
:1006CE00CDDFF7D011F4F7D007C0EEF7F4D0A0E0ED
:1006DE00B0E080E89FE325D22496089523D0E991D7
:1006EE00F991A991B991CD0105900D920020E1F7F4
:1006FE00FC010895E883A881A9DFC29AC298E88117
:10070E000895A4DFC29AC2980895B0E061C1A0E333
:10071E00D4DC85ED8A95F1F70895CFDCA0E8CDDC29
:10072E00A0E00895BA93AA930895C0989798089553
:10073E00A1E0D0DCA0E8CECCEEB5E260EEBD08952F
:10074E00C19AA8EEB3E044C1C198E0E0F0E0FDBD6F
:10075E00ECBDE9B7EF7DE9BFE7B1E07FE7B9E8B7F8
:10076E00E062E8BFE9B7E062E9BFE0E0E09365016F
:10077E00E0936601E0936701E0936801E0936901FD
:10078E00E0936A01E0936B01E0936C01E0936101E9
:10079E00E0936201E0936301E09364010895E091B8
:1007AE006901F0916A0160916B0170916C0108957D
:1007BE00F6DF82D1DF01CB01E0E0F0E060E070E433
:1007CE0055D2A0E0B0E28EE994E450D211D300D21B
:1007DE000895A4E0B0E00895A0E0B0E0089529D314
:1007EE0011D3A1E0E1DCAFE2B0E0CDCCA0EC72DC45
:1007FE00F0DFF5CF2497E0E0E883E983EA83EB832B
:10080E0008953898E8B7E062E8BF0895E0E0E09315
:10081E006101E0936201E0936301E0936401E0E023
:10082E00F0E0FDBDECBDE0936501E0936601E09361
:10083E006701E0936801E0936901E0936A01E09338
:10084E006B01E0936C01C1980895E0916501F09100
:10085E006601609167017091680120D30895A0919F
:10086E006101B091620180916301909164010895DC
:10087E00E0916501F09166016091670170916801E8
:10088E0067D2A0916901B0916A0180916B0190913C
:10089E006C0168D2AE2F83DF75D2EA2B08957FDF0D
:1008AE000BD1DF01CB01E0E0F0E060E070E4DED1DF
:1008BE000895A3D2089597D20895E8B7E062E8BFED
:1008CE000895E0E0F0E0FDBDECBD0895E0E0E093BA
:1008DE006101E0936201E0936301E0936401089586
:1008EE00EC81FD816E817F8108950A921A92FA92AF
:1008FE006A937A938A939A93AA93BA93EA93FA9302
:10090E00EFB7EA930895A1E0E5CBE0916101F09194
:10091E0062016091630170916401AFEFBFEF80E0FF
:10092E0090E037D2DF01CB01E6B5F7B56627772722
:10093E0002D20895E0E0E883E983EA830895AC816A
:10094E00BD818E819F8108951EDCA8EEB3E040C06C
:10095E00EE81FF81FA93EA930895E985FA856B8516
:10096E007C850895E987FA876B877C870895AE8129
:10097E00BF811196AE83BF8311970895AA81BB8163
:10098E008C819D810895EDECFCEC6CEC7DE320D127
:10099E000895EA83FB836C837D830895EA81FB814E
:1009AE006C817D81A985BA858B859C850895E0E053
:1009BE00F0E060E271E40CD10895E02FE05DEC937D
:1009CE00E02FF0E00895A985BA858B859C85089562
:1009DE00109639F080EA9FE00197F1F7A8951197EC
:1009EE00C9F7089530976040704009F07058089527
:1009FE00552342F4503811F4E0FF04C03196691FBC
:100A0E00791F6BF050E8572711F45F93CFC05F3F0B
:100A1E0031F0660F000C57956795752F08955F930B
:100A2E0000200AF0CFC0C8C050E8192E1522880F3A
:100A3E00991F9527550F879550E8072E0522660FAB
:100A4E00771F7527550F67950895689401C0E89430
:100A5E005F93F2DF703818F07F3F08F4A7C056E1BD
:100A6E00571BAAF4519558300EF4593030F0EFEF71
:100A7E00FFEF6FEF7FE777F91AC077275523B9F0AD
:100A8E00EE0FFF1F661F771F5A95D1F710C07727FD
:100A9E00583028F0EF2FF62F672F5850F9CF5523E7
:100AAE0031F076956795F795E7955A95D1F7002031
:100ABE000AF446D15F910895689401C0E894309786
:100ACE0060407040B1F0002426F0772312F40094B9
:100ADE0037D1172E7EE1112032F07A95EE0FFF1FDF
:100AEE00661F111CF9CFEF2FF62F612D5F938ADF52
:100AFE005F9108954F93AF01FD01DA01AB01BC0187
:100B0E00CA01402D012C142E4F910895EA0FFB1FA0
:100B1E00681F0895E095F0956095EF5FFF4F6F4F5A
:100B2E0008955F9381DF903871F150E8152604C067
:100B3E005F937ADF903839F1703821F1572F591BB6
:100B4E002BF112F4D7DFFACF583118F0AA27BB27B2
:100B5E008827583028F0AB2FB82F88275850F9CF58
:100B6E00552329F08695B795A7955A95D9F7502D07
:100B7E00512572F0CBDF38F46795F795E7957395AD
:100B8E0013F420C0B7DF3EDF5F910895D8F7FBCF97
:100B9E00EA1BFB0B680B51F010F40094BBDF6623CD
:100BAE0092F3EE0FFF1F661F7A95CBF7EE27FF2706
:100BBE00662777275F910895EFEFFFEF6FE77FEFDF
:100BCE005F910895EFEFFFEF6FE77FE75F91089575
:100BDE005F932ADF703851F3903841F30124089463
:100BEE00791F23F41CF300203AF3ECCF0F921F93DE
:100BFE002F933F934F93112722279927689FA00188
:100C0E008F9F302D410D591F6B9F300D411D591F68
:100C1E008E9F27D0BF9F25D06A9F23D0BE9F1DD009
:100C2E00AF9F1BD0AE9F110D291F391F491F591F92
:100C3E00E32FF42F652F522F4F913F912F911F913C
:100C4E000F9066232AF0550FEE1FFF1F661F02C07E
:100C5E0073954BF2CDDE5F910895100D211D391F56
:100C6E0002C0200D311D491F591F08955F93DCDE10
:100C7E00703821F411200AF49FCFA4CF903809F4D4
:100C8E0095CF01240894970B1BF4D4F30020F3CFD7
:100C9E00792F1F932F933F934F93112411272227C0
:100CAE0033274427552790E2AE17BF078607410723
:100CBE0030F0AE1BBF0B860B410B089401C088941D
:100CCE00551F221F331F111CAA1FBB1F881F441F35
:100CDE009A9551F7F901612D4F913F912F911F91E7
:100CEE00662332F0550FEE1FFF1F661F7A9543F2F3
:100CFE007FDE5F91089599239AF0772342F097173C
:100D0E0048F029F4AE17BF07860720F031F098940B
:100D1E008894089598940894089518948894089542
:100D2E007723C2F7971798F3A9F7EA17FB07680717
:100D3E0088F399F3ECCFEA0FFB1F681F791F089514
:100D4E00F09560957095E195FF4F6F4F7F4F089529
:100D5E0076956795F795E79508956F2F660F660B55
:100D6E00762F0895AE17BF0786079707E1E008F0C4
:100D7E00EE270895EA17FB0768077907E1E008F008
:100D8E00EE270895EF2BE62BE72BE1E009F0E0E0EC
:100D9E0008957A9F702D6B9F700DF89F700DE99FCF
:100DAE00700D6A9F602D710DFB9F600D711DE89F88
:100DBE00600D711D8827FA9FF02D610D781FEB9F36
:100DCE00F00D611D781FEA9FE02DF10D681F781F51
:100DDE000895ED91FD916D917D9108957E936E93A1
:100DEE00FE93EE930895E881F9816A817B810895DF
:100DFE00A881B9818A819B810895E883F9836A83EA
:100E0E007B8308957A936A93FA93EA9308959A935B
:100E1E008A93BA93AA930895182E862F612D192EB0
:100E2E00972F712D1B2EBF2FF12D1A2EAE2FE12DC8
:100E3E000895129602D0BF011297119602D0FE2F7E
:100E4E001197E199FECFFF93FFB7F894AEBBBFBBEE
:100E5E00E09AEDB3FFBFFF91089507D012960F01F0
:100E6E00FB0103D0F0011297089507D01196EF936E
:100E7E00EF2F03D0EF9111970895E19B02C0A89533
:100E8E00FCCF9FB7F894AEBBBFBBE09A8DB3E8170B
:100E9E0019F0EDBBE29AE19A9FBF0895309760403A
:100EAE00704008951A930A93089519810881089540
:00000001FF
