:080000007DC0C2C1CFC1FCCFDD
:10000800FBCFFACFF9CFF8CFD6C2F6CFF5CFF4CFE2
:10001800F3CFF2CFF1CFF0CFA6C2D3C5EDCF1027E3
:10002800E80364000A00010000100001100001004C
:10003800000000000000000000006001630168018A
:1000480079016500433D004553523D003030303062
:10005800303030303030303030303030003C544583
:100068005354494E473E0074696D6531202575200B
:100078002C257520200A0074696D653220257520AD
:100088002C257520200A0020754600204F686D0039
:1000980001002D4E414E00494E4600000700010068
:1000A800020038000A0004003A00030060014C0016
:1000B800050063014F0002008A0144001100680135
:1000C800540002009001460005007901600002001A
:1000D80092014800020094014A0004007E018F004A
:1000E8000500820193000100960198000100890132
:1000F800A4000000F894EE27ECBBF1E0FBBFEBBFD7
:10010800E5BF8DE0A2E0BB27ED938A95E9F780E093
:1001180094E0A0E6ED930197E9F7E6EAF0E085912F
:100128009591009761F0A591B59105901590BF0143
:10013800F00105900D920197E1F7FB01F0CFEFE593
:10014800EDBFE4E0EEBFC0E6D1E047C2AA93E88184
:10015800E860E883E981EA93FE013196FA93EA932D
:10016800E1E0EA93E0E0F0E0FA93EA93A0E0C2D499
:10017800E881E460E883E981EA93FE013196FA9325
:10018800EA93E1E0EA93E0E0F0E0FA93EA93A0E092
:10019800B1D4E881EB7FE883E981EA93FE013196E7
:1001A800FA93EA93E1E0EA93E0E0F0E0FA93EA9365
:1001B800A0E0A0D422960895AA93AEE1B0E064D658
:1001C800E881EA93A0E3C2DF8BE68A95F1F7E8813C
:1001D800EA93A0E3BBDF8BE68A95F1F7E881EA931F
:1001E800A0E3B4DF8BE68A95F1F7E881EA93A0E211
:1001F800ADDF8BE68A95F1F7E881EA93A0E2A6DF06
:10020800E881EA93A0E8A2DFE881EA93A0E09EDF14
:10021800E881EA93A0E89ADFE881EA93A0E096DF14
:10022800E881EA93A0E192DFE881EA93A0E08EDF1B
:10023800E881EA93A0E68ADFE881EA93A0E086DF16
:10024800E881EA93A0EC82DF24C2AA93FFD7EA816F
:10025800E07FE75F1E2FEA81E295E07FE75F0E2FE0
:10026800EB81EA93EDB7FEB7FA93EA931F93E1E0C7
:10027800EA93E0E0F0E0FA93EA93A0E03BD41F9120
:100288001460EB81EA93EDB7FEB7FA93EA931F93F4
:10029800E1E0EA93E0E0F0E0FA93EA93A0E02AD400
:1002A8001F91197FEB81EA93EDB7FEB7FA93EA93B2
:1002B8001F93E1E0EA93E0E0F0E0FA93EA93A0E02C
:1002C80019D41F91EB81EA93EDB7FEB7FA93EA933D
:1002D8000F93E1E0EA93E0E0F0E0FA93EA93A0E01C
:1002E80009D40F910460EB81EA93EDB7FEB7FA9356
:1002F800EA930F93E1E0EA93E0E0F0E0FA93EA93FF
:10030800A0E0F8D30F91097FEB81EA93EDB7FEB730
:10031800FA93EA930F93E1E0EA93E0E0F0E0FA93CE
:10032800EA93A0E0E7D30F9198D728C0AA93AAE050
:10033800B0E0AAD5A881A13041F4E7E2EA93A0ECA5
:1003480005DFE7E2EA93A0E007C0E7E2EA93A0E06E
:10035800FDDEE7E2EA93A2E0F9DEA981BA81EC9139
:10036800E03061F0EB81EA93AA81BB81AC916DDF4B
:10037800E981FA813196E983FA83EFCF24960895CB
:10038800EA93EFB7EA938CB49DB4E0E0EDBDECBD21
:10039800689420F8E991EFBFE99118950A921A92AA
:1003A800FA926A937A938A939A93AA93BA93EA935E
:1003B800FA93EFB7EA93ACB4BDB4EFE6F0E0FA9382
:1003C800EA93F201662777272BD7F4016627772768
:1003D80027D788E0D5D22A96EFE7F0E0FA93EA9398
:1003E800F301662777271CD7F5016627772718D7E3
:1003F80088E0C6D22A96D30188279927E0E0F0E062
:1004080061E070E0A3D6DF01CB01F501662777270D
:1004180082D6A8D5AAE0B7ED83EA9BE32AD6AEE850
:10042800B1E069D5ED93FC93E0918E01F0918F01D5
:10043800FA93EA93A0919201B0919301C1D2E0910D
:100448009001F0919101FA93EA93D601F8D2E091E4
:100458009001F0919101FA93EA93A0919201B091E1
:100468009301DCD2E0919001F0919101FA93EA9323
:10047800AEE7B1E0D3D2E7E2EA93A0E067DEE7E2D5
:10048800EA93A0E163DEE7E2EA93E0919001F0915C
:100498009101FA93EA93A0E049DFD20188279927CE
:1004A800E0E0F0E061E070E051D6DF01CB01F4015B
:1004B8006627772735D6E0918E01F0918F01662760
:1004C800772777D64FD5A0E0B0E086E993E4ADD69C
:1004D8007ED5ACE8B1E00FD5ED93FC93E0918C01AB
:1004E800F0918D01FA93EA93A0919201B091930152
:1004F80067D2E0919001F0919101FA93EA93A0916B
:100508008A01B0918B019BD2E0919001F091910109
:10051800FA93EA93A0919201B09193017FD2E0916E
:100528009001F0919101FA93EA93A2E8B1E076D2B2
:10053800A8EEB3E0A9D4E7E2EA93E0919001F09144
:100548009101FA93EA93A1E0F1DEE991EFBFF99105
:10055800E991B991A9919991899179916991F990C4
:100568001990099018950A921A92FA926A937A93B6
:100578008A939A93AA93BA93EA93FA93EFB7EA9372
:10058800E0E0EDBDECBD442455246624772488249E
:100598009924AA24BB24A3E377D0E991EFBFF9916A
:1005A800E991B991A9919991899179916991F99074
:1005B800199009901895EA93FA93EFB7EA9320FCFB
:1005C80004C0F20131962F0103C0F30131963F01B7
:1005D800E991EFBFF991E9911895E0E0E7BBE8BB35
:1005E800E1E0E4BBE5BBE0E0E1BBE2BBEFBDE2E09C
:1005F800EEBDE0E0EDBDE2E3ECBDE0E0E7BDE6BD69
:10060800EBBDEABDE9BDE8BDE4E0E9BFEBB7E06CEE
:10061800EBBFEFE0E5BFE0ECEABFE0E0EBB9E8E014
:10062800EAB9E6E8E0BDE0E0E0BDE3E3E9B9EBE024
:10063800E8B9E0E0E0BFE6B9A4E6B0E033D2A7E26B
:10064800BBDDE0919001F0919101FA93EA93A091BA
:100658009401B091950100D2E081E7E2EA93E0913C
:100668009001F0919101FA93EA93A0E05FDEA8EE81
:10067800B3E00AD47894E0E0E5BBA2E305D0A8EEA5
:10068800B3E002D4FACFFFCFAA935D9BFECFE881F7
:10069800ECB921960895BA93AA93AA81F5DFA881A7
:1006A800B981ED91FD913196FE93EE9321C2BA93F3
:1006B800AA932697C7D510E0AC85BD85E0E0F0E0A9
:1006C800ED93FC93EA89FB893196EA8BFB8B319792
:1006D800E4912E2FE03009F44DC1E12FE03059F4B8
:1006E800253211F411E006C02A93AD85BE85EF8549
:1006F800F88909953EC1E130C9F4253239F42A93C5
:10070800AD85BE85EF85F889099532C112E040E0D4
:1007180000E02D3211F401E02CC12B3211F44BE230
:1007280028C1203211F440E224C102C0E23039F479
:1007380050E013E0203311F400681BC103C0E3301C
:1007480009F017C1203310F02A3308F007C0AAE0D7
:100758005A9F502DE22FE0535E0F0BC1E22FE33674
:1007680069F4E889F9893497E88BF98BA481AA930D
:10077800AD85BE85EF85F8890995FAC0E33781F420
:10078800E889F9893497E88BF98BA889B98914968F
:1007980035D5EE83FF83AE81BF816BD11E2F12C08A
:1007A800E037A1F4E889F9893497E88BF98BA889AF
:1007B800B989149623D5EE83FF83AE81BF8165D1B5
:1007C8001E2F086002600F7730E03FC0E43611F05A
:1007D800E93611F4046002C0E53731F4E6E2F0E0EE
:1007E800EE83FF8315E00CC0E83511F4086003C000
:1007F800E83709F0BDC0E0E3F0E0EE83FF8314E0E2
:1008080002FF18C0E889F9893497E88BF98BA88921
:10081800B9891496F3D4EA87FB87AB85AA2322F417
:1008280084D4EA87FB874DE2403011F01F5F01C096
:100838000B7F0BC0E889F9893497E88BF98BA88975
:10084800B9891496DBD4EA87FB8700FD15C0151714
:1008580098F407FF08C002FF04C00B7F242F115033
:1008680001C020E301C020E22A93AD85BE85EF8553
:10087800F88909955150EBCF312F01FF1BC030305B
:10088800C1F003FF06C0EE81FF812591EE83FF834F
:1008980005C0AE81BF812D91AE83BF832A93AD85FC
:1008A800BE85EF85F8890995503009F051503150CF
:1008B800E6CF51C020E3EE81FF81A4D4E887F98711
:1008C800EE81FF813296EE83FF83E885F985AA855C
:1008D800BB85AE17BF0750F02F5FA885B985EA859D
:1008E800FB85EA1BFB0BEA87FB87EFCF2A3328F04F
:1008F80003FF02C0295F01C0295D04FD1DC021332B
:1009080020F4A885B985119709F409C0531710F088
:1009180000FF01C01AC020E207FF0EC020E30061FB
:1009280002FF0AC00B7F4A93AD85BE85EF85F88923
:100938000995503009F051502A93AD85BE85EF8551
:10094800F8890995503009F051503150A885B9857A
:10095800129708F0AFCF00FF0BC0503049F051504C
:10096800E0E2EA93AD85BE85EF85F8890995F5CF74
:1009780010E0A8CEAC85BD8541D46BD464960895AB
:10098800FF92F82E269762D4DE011496C0D38D010B
:10099800E0E0EC83ED83EE83EF83DE011896B7D3B6
:1009A8002DD4FA93EA931A930A93EFE4F3E0FA93B7
:1009B800EA93DE0118967BDE50D42896FF900895BE
:1009C800BA93AA93A991B991E991F99130962AF429
:1009D800E095F09531966DE26D93E89480E197E2A9
:1009E8000DD088EE93E00AD084E6992707D08AE0F4
:1009F80005D06E2F10D066276C9308956627E817E8
:100A0800F90720F06395E81BF90BC9F7662311F481
:100A180016F008956894605D6D930895BA93AA934B
:100A2800E991F991A991B991CD016D916623E9F701
:100A3800119761916D936623E1F7FC010895BA93CC
:100A4800AA93E991F991A991B991CD0161916D9319
:100A58006623E1F7FC010895BA93AA93E991F99105
:100A6800A991B991CD0105900D920020E1F7FC0103
:100A78000895BA93AA93A991B991EE27FF276D918A
:100A8800662311F03196FBCF0895BA93AA93AA274B
:100A9800BB27E991F9910590002011F01196FBCF41
:100AA800FD010895BA93AA931A93689422F8E7E08F
:100AB800E0938901E0E0E093A201E093A301E093D1
:100AC800A401E093A501AC9AAD9AE6BFE1B1EC7F31
:100AD800E1B9E981FA81A0EABFE058D31E2F1830A6
:100AE80008F0185010B9E6B7E078E564E6BF188159
:100AF80023960895AA93249722FE60C0EA85EE0FF4
:100B0800E0939A01E885F985E0939B01F0939C01B5
:100B1800E0E0E0938701EF81E0939D01ED81FE81A4
:100B2800E0939E01F0939F01E0E0E0938801EC815F
:100B3800E093A001E6E0E09389017894EF81E0304A
:100B480081F0E885F985309709F438C0EC81E03008
:100B580021F0AD81BE81109709F001C02FC06894C3
:100B68000DC0EC81E03029F1ED81FE81309731F143
:100B7800E0919A01E160E0939A01E89421F8E89401
:100B880022F8E6B7EF70E06AE6BFE0E2F1EA67E074
:100B980070E041D322FC0DC039D3319760407040DA
:100BA8003AD331F4E5E0E0938901689422F806C06D
:100BB800F1CFA0918901E0E0C4D201C0E0E02B961A
:100BC80008950A921A92FA926A937A938A939A9358
:100BD800AA93BA93EA93FA93EFB7EA9333D31091AF
:100BE80088010091870130919D0120918901E12FB1
:100BF800A0919E01B0919F01F0E0EA0FFB1FAF01A9
:100C0800E1B1E87FE83011F420E002C0E03119F4E6
:100C1800E0919A0110C0E83111F0E83221F503178C
:100C280080F4E02F0F5FA0919B01B0919C01F0E050
:100C3800AE0FBF1FEC91E3B9E6B7EF70E068E6BF0F
:100C480011C0E091A0011E1760F4E0919A01E160E3
:100C5800E0939A01E89421F8E6B7EF70E06AE6BFFE
:100C6800FBC033C0F9C0E03529F4E3B1DA01EC93F5
:100C78001F5F02C0E03471F4E091A001E1501E173B
:100C880020F0E6B7EF70E06803C0E6B7EF70E06CFD
:100C9800E6BFE2C0E83529F4E3B1DA01EC931F5F5F
:100CA80002C0E03209F402C0E03309F402C0E834BB
:100CB80069F4203051F421FE03C0031728F005C061
:100CC800E091A0011E1708F424E0C0C0E83329F41D
:100CD80022E0E6B7EF70E068BCC0E83611F0E8370C
:100CE80011F422E005C0E03611F0E03791F420E07D
:100CF80010E0E89421F8E091A101E03029F421E026
:100D0800E6B7EF70E06803C0E6B7EF70E06CE6BFE7
:100D1800A3C0E03811F0E03929F521FE02C021E036
:100D280095C0E3B1DA01EC931F5FE091A1011E17B2
:100D3800B0F4E091A201F091A301309711F426E0FC
:100D480085C0A0E0E091A201F091A3010995E030EF
:100D580029F0E6B7EF70E06CE6BF7EC002C0689489
:100D680021F802C0E83809F402C0E83929F4E6B7E6
:100D7800EF70E068E6BF70C0E03AA9F4E6B7EF703C
:100D8800E06CE6BF689422F8E091A201F091A3011B
:100D9800309739F0A1E0E091A201F091A301099503
:100DA80001C026E059C0E03B11F422E002C0E83A55
:100DB800B9F4E091A401F091A501309759F0A0E0B1
:100DC800E091A401F091A50109953E2FE03011F0C2
:100DD80020E002C026E03AC000E0E89421F802C012
:100DE800E83BE1F421FE02C021E030C0E02F0F5FB4
:100DF800A0919B01B0919C01F0E0AE0FBF1FEC9158
:100E0800E3B9031720F4E6B7EF70E06C05C0689407
:100E180021F8E6B7EF70E068E6BF1EC0E03C11F0CD
:100E2800E83C89F4E6B7EF70E06CE6BFE091A40116
:100E3800F091A501309731F0A1E0E091A401F09183
:100E4800A501099507C0E03039F423E0E6B7EF7053
:100E5800E06DE6BF689422F810938801009387013B
:100E68002093890130939D01F4D12696E991EFBF33
:100E7800F991E991B991A99199918991799169919A
:100E8800F990199009901895109639F080ED97E02F
:100E98000197F1F7A8951197C9F70895552342F4DA
:100EA800503811F4E0FF04C03196691F791F6BF0C8
:100EB80050E8572711F45F93CAC05F3F31F0660FBF
:100EC800000C57956795752F08955F9300200AF0D9
:100ED800CAC0C3C050E8192E1522880F991F95273C
:100EE800550F879550E8072E0522660F771F75273F
:100EF800550F67950895689401C0E8945F93F2DFF1
:100F0800703818F07F3F08F4A2C056E1571BAAF4C6
:100F1800519558300EF4593030F0EFEFFFEF6FEF86
:100F28007FE777F91AC077275523B9F0EE0FFF1F2F
:100F3800661F771F5A95D1F710C07727583028F0C9
:100F4800EF2FF62F672F5850F9CF552331F07695AC
:100F58006795F795E7955A95D1F700200AF4E9D0F7
:100F68005F910895689401C0E8943097604070409C
:100F7800B1F0002426F0772312F40094DAD0172E6B
:100F88007EE1112032F07A95EE0FFF1F661F111CCB
:100F9800F9CFEF2FF62F612D5F938ADF5F910895C8
:100FA8004F93AF01FD01DA01AB01BC01CA01402D2D
:100FB800012C142E4F910895EA0FFB1F681F089506
:100FC800E095F0956095EF5FFF4F6F4F08955F9341
:100FD80081DF903849F150E81526703821F1572FF4
:100FE800591B2BF112F4DCDFFACF583118F0AA277D
:100FF800BB278827583028F0AB2FB82F88275850A0
:10100800F9CF552329F08695B795A7955A95D9F71D
:10101800502D512572F0D0DF38F46795F795E79594
:10102800739513F420C0BCDF43DF5F910895D8F7B0
:10103800FBCFEA1BFB0B680B51F010F40094C0DFE8
:10104800662392F3EE0FFF1F661F7A95CBF7EE2704
:10105800FF27662777275F910895EFEFFFEF6FE788
:101068007FEF5F910895EFEFFFEF6FE77FE75F9105
:1010780008955F932FDF703851F3903841F30124BE
:101088000894791F23F41CF300203AF3ECCF0F9255
:101098001F932F933F934F93112722279927689FD8
:1010A800A0018F9F302D410D591F6B9F300D411DA1
:1010B800591F8E9F27D0BF9F25D06A9F23D0BE9FE0
:1010C8001DD0AF9F1BD0AE9F110D291F391F491F7F
:1010D800591FE32FF42F652F522F4F913F912F91D6
:1010E8001F910F9066232AF0550FEE1FFF1F661FF2
:1010F80002C073954BF2D2DE5F910895100D211D49
:10110800391F02C0200D311D491F591F08950024A1
:10111800AF0DB01D0895EA0FFB1F681F791F0895D2
:10112800AE0FBF1F861F971F0895F195E195F040F8
:101138000895F09560957095E195FF4F6F4F7F4F3B
:101148000895EA17E1E009F0EE2708957A9F702DD7
:101158006B9F700DF89F700DE99F700D6A9F602D51
:10116800710DFB9F600D711DE89F600D711D882733
:10117800FA9FF02D610D781FEB9FF00D611D781F10
:10118800EA9FE02DF10D681F781F089500241124AF
:1011980090E1AA0FBB1F001C111C0E1A1F0A18F49D
:1011A8000E0E1F1E01C0A1609A9599F7FD01D0018E
:1011B80008953F934F935F930024112444275527A4
:1011C80030E2AA0FBB1F881F991F001C111C441F67
:1011D800551F0E1A1F0A460B570B28F40E0E1F1E1A
:1011E800461F571F01C0A1603A9559F7FD01BC0180
:1011F800D001CA015F914F913F910895ED91FC9103
:10120800119708950590F491E02D0895E881F981EA
:101218006A817B810895E883F9836A837B830895D3
:101228007A936A93FA93EA930895182E862F612D7C
:10123800192E972F712D1B2EBF2FF12D1A2EAE2F81
:10124800E12D08955A934A933A932A931A930A934D
:1012580008955D814C813B812A8119810881089517
:00000001FF
