:020000000C945E
:100002004F000C94DC010C9400000C9400000C9442
:1000120000000C9400000C9400000C9400000C945E
:1000220000000C9400000C9400000C9400000C944E
:1000320000000C9400000C9400000C9400000C943E
:1000420002020C9400000C9400000C9400000C942A
:1000520000000C9400000C9400000C940F020C940D
:1000620000000C940000000000000000004348451E
:10007200434B006D41007546004F6D0001002D4E4F
:10008200414E00494E460000060003006800010090
:1000920000026E00010001027E000000F894EE27CB
:1000A200EFBBF1E0F5BFE5BF8DE0A2E0BB27ED932A
:1000B2008A95E9F780E094E0A0E0B1E0ED93019742
:1000C200E9F7EAE8F0E085919591009761F0A59152
:1000D200B59105901590BF01F00105900D92019721
:1000E200E1F7FB01F0CFE0E0EEBBEFEFEDBFE4E0C4
:1000F200EEBFC0E0D2E00C943F02AA93E881E86030
:100102000E94DD03E4600E94DD03EB7FE883A881A7
:100112000E94E503A2E0B0E00E94D6040C9486039C
:10012200AA93E881E07FAE2FE8DFE881E295E07FE5
:10013200AE2FE3DF0C948603A8E2B0E00E94D6045F
:100142000E94EA030E94EA030E94EA03A0E2D5DFCA
:100152008BE68A95F1F7A0E20E94F1030E94F10377
:10016200CCDFA0E1CADFA0E0C8DFA0E6C6DFA0E0E6
:10017200C4DFA0ECC2DF0895AA931A930A93EA811E
:10018200E07FE75F1E2FEA81E295E07FE75F0E2FB7
:10019200A12F0E94E5031460A12F0E94E503197F9D
:1001A200A12F0E94E503A02F0E94E5030460A02F67
:1001B2000E94E503097FA02F0E94E503A2E0B0E0C0
:1001C2000E94D6041981088123960895BA93AA93AE
:1001D200A881B981EC91E03031F0ED91A883B98327
:1001E200AE2FCADFF5CF10C0BA93AA93E881F98186
:1001F200E491E03049F0E881F9813196E883F983AE
:100202003197A491B9DFF2CF22960895AA931A9357
:100212000A9300E012E0EB81FC816D817E810E94F5
:10022200BD06EE81EA93D8010E94B102D801CEDF69
:1002320019810881279608950E94C2060E94F80338
:10024200AFE6B0E0D1DF0E94FE035F9A0E94030492
:10025200072C0828E9F35F980E941704A4E0B0E095
:100262000E94E8060E94FE03289A0E940304072CBB
:100272000828E9F328980E941704A0E0B0E00E9441
:10028200E806299A0E94F8030E9428040E942D047D
:100292000E9436040E942D040C94CE030E943E0458
:1002A2000E944504072C0828E9F35F980E945A042B
:1002B20010F0F4DF04C00E9428040E9462040E942D
:1002C200B8060E947504A0E00E947D040C94CE033F
:1002D2000E943E04289A2998E0917C00EE7FE093E8
:1002E2007C00E0B7E061E0BFE0E0E6BDE0E0F0E026
:1002F2007E2E8F2E5E2E6F2E33244424072C082848
:1003020051F4E4E6F0E0E315F40520F42898C6DFA2
:100312000C94CE03F3CF28980E945A0410F0D8DF31
:1003220004C00E9428040E9462040E94B8060E942F
:100332007504A2E00E947D040C94CE030E94C206C2
:100342000E948604E0E0EB83A0ECEADE0E94FE035A
:100352000E944504072C0828E9F35F980E9436049E
:10036200A0E0B0E48CE994E40E9424067F936F93AA
:10037200FF93EF93E52DF62D662777270E944C0514
:10038200DF01CB01EC81FD816E817F810E94240619
:10039200AF91BF918F919F910E948C040E94B806E9
:1003A2000E9491040E94BD06A3E030DFABE7B0E0FB
:1003B2001BDF289608950A921A92FA926A937A9308
:1003C2008A939A93AA93BA93EA93FA93EFB7EA932A
:1003D2000E949404E0B7E061E0BF7894A1EEBAE72E
:1003E2008CED90E429DFE991EFBFF991E991B991A0
:1003F200A9919991899179916991F99019900990AE
:100402001895EA93FA93EFB7EA93E1E0F0E03E0E33
:100412004F1EE991EFBFF991E9911895AA93BA930A
:10042200EA93FA93EFB7EA93E0917C00E17061F40A
:10043200E0917C00E160E0937C000E9498045E2ED3
:100442006F2E772488240CC0E0917C00E170A0E03C
:100452000E949606E13021F40E9498047E2E8F2E8F
:10046200E0E0E6BD33244424E0B7E061E0BFE99177
:10047200EFBFF991E991B991A9911895E0E8E0935C
:100482006100E0E0E0936100EFE2E4B9E0E0E5B9A9
:10049200E7B9E8B9E0E8EAB9E4E0EBB9E0E0E4BDE5
:1004A200E2E0E5BDE0E0E6BDE7BDE8BDE093800047
:1004B200E0938100E0938500E0938400E09387005D
:1004C200E0938600E0938900E0938800E0938B003C
:1004D200E0938A00E093B600E093B000E093B100AD
:1004E200E093B200E093B300E093B400E1E0E09364
:1004F2006E00E0E0E0936F00E0937000E1E0E093D3
:100502006900EDBBECBBE0E0E0936800E093C10062
:10051200EBE1E0BFE0E4E0937B00E0E0E0937F000A
:10052200E0937A00E1E5ECBDE0E0EDBDE093BC00D4
:10053200299AE0B7E061E0BF7894FEDD0E9494045E
:100542000E9428040E942D040E9436040E942D0459
:100552000E949404BDDEDF01CB01F0DEFFCFFFCFAE
:10056200BA93AA930E948604EFE3EB831A930A9349
:10057200EB85FC85EF3FAFEFFA0739F40E949F0449
:10058200A0E8B0E00E94D003B5C0EF3FAFE7FA07A2
:1005920039F40E949F04A1E8B0E00E94D003AAC0EF
:1005A200AC85AA2362F4E985FA856B857C850E9475
:1005B200E0040E94A4040E94A904EDE2EC93A88541
:1005C200A73010F0E6E0E8871885E12F1150E030FF
:1005D20039F00E94B0040E94B5040E94BC04F5CF19
:1005E2000E94C1040E9486050E94A40410E0E0E07B
:1005F200F0E060E87FE30E94BC040E94C1040E9414
:10060200690688F00E94B0040E94CA040E94BC04D9
:100612001F5F173238F00E949F04A5E8B0E00E94E5
:10062200D00368C0EACF103029F40E94A904E0E3A5
:10063200EC9331C0E12F1150E03069F10E94B00417
:100642000E94B504A0E0B0E080E09FE30E9486052E
:10065200DF01CB010E94B9030E94BC040E94C104C5
:100662000E9424060E9413050E2F0E94A904E02F67
:10067200E05DEC93E02FF0E00E94B0040E9491064E
:100682000E944C050E94D6050E94D1040E948C044F
:100692000E94A404CFCFE885E03041F10E94A90472
:1006A200EEE2EC93E885E150E887EF5FF9F00E9413
:1006B200D1040E94CA040E94A404E985FA856B85CC
:1006C2007C850E9413050E2F0E94A904E02FE05D95
:1006D200EC93E02FF0E00E94D1040E9491060E9468
:1006E2004C050E948C040E94A404DCCFAE81BF8121
:1006F200E0E0EC93198108812D960895AA93E88190
:10070200EEBDEDB5E7FFFDCFEEB5219608950E944F
:10071200C2067B816A81F981E88177FB770F67FDE9
:100722007160972F9E5781F078F0983190F4AA2744
:10073200BB27882708948795B795A7959A95D1F7EF
:10074200EA23FB23682305C0E8947727EE27FF27D7
:1007520066276F77769508F4606877F9A991B99161
:1007620089919991EA17FB076807790797FB089522
:100772000E94C2060E94B3060E9488030E94B80625
:1007820019F40E94910409C0E6F70E949104A0E0C6
:10079200B0E080E89FE30E947F0524960895BA9313
:1007A200AA93E991F991A991B991CD0105900D9280
:1007B2000020E1F7FC010895E883A8810E947F03ED
:1007C2002A9A2A98E88108950E947F032A9A2A98F1
:1007D2000895A0E30E947E008BE68A95F1F70895C2
:1007E2000E947E00A0E80E947E00A0E00895A1E0A1
:1007F2000E949100A0E80C949100299AA8EEB3E01F
:100802000C94D6042998E0E0E6BDE0917C00EE7FEE
:10081200E0937C00E0B7E061E0BFE0E0F0E07E2E34
:100822008F2E5E2E6F2E332444240895E72DF82D4B
:10083200662777270E944C05A0E0B0E882EA94E49C
:100842000E9424060E94B3060E94D6050895A0E0E5
:10085200B0E00E94D40608950E94BD06A1E00E9465
:100862000701A5E7B0E00C94F500A0EC0E9491000E
:10087200A4E0B0E00E94D40608952497E0E0E88363
:10088200E983EA83EB83B9CF5F9A2998E0917C00F0
:10089200EE7FE0937C00E0B7E061E0BFE0E0E6BD20
:1008A200E0E0F0E07E2E8F2E5E2E6F2E3324442465
:1008B2000895E72DF82DA52DB62D0E949B0636979B
:1008C2000895DF01CB01E72DF82D662777270E94D7
:1008D2004C050E94D605DF01CB01E0E0F0E862EAB8
:1008E20074E40E9424060895A1E00E9491000E94EF
:1008F200AE060E94BD0608950E940701A8E7B0E077
:100902000E94F5000E94AE0608952497E0E0E88375
:10091200E983EA8308950E94C7060E947F0508952D
:100922000E94AE060895A4E6B0E00C94D604B32D5E
:10093200A0E0E6B5F0E0EA0FFB1F0895EE81FF812B
:10094200FA93EA930895E987FA876B877C8708957B
:10095200AE81BF811196AE83BF8311970895AA819C
:10096200BB818C819D810895EDECFCEC6CEC7DE308
:100972000E94D6050895EA83FB836C837D830895E4
:10098200EA81FB816C817D81A985BA858B859C85F5
:100992000895E0E0F0E060E271E40E94D605089577
:1009A200A985BA858B859C850895109639F080EDCE
:1009B20097E00197F1F7A8951197C9F70895309735
:1009C2006040704009F070580895552342F4503841
:1009D20011F4E0FF04C03196691F791F6BF050E8F3
:1009E200572711F45F93CFC05F3F31F0660F000CC1
:1009F20057956795752F08955F9300200AF0CFC031
:100A0200C8C050E8192E1522880F991F9527550F37
:100A1200879550E8072E0522660F771F7527550F19
:100A220067950895689401C0E8945F93F2DF703887
:100A320018F07F3F08F4A7C056E1571BAAF451955E
:100A420058300EF4593030F0EFEFFFEF6FEF7FE7E1
:100A520077F91AC077275523B9F0EE0FFF1F661FEB
:100A6200771F5A95D1F710C07727583028F0EF2F0B
:100A7200F62F672F5850F9CF552331F076956795A9
:100A8200F795E7955A95D1F700200AF441D15F9185
:100A92000895689401C0E894309760407040B1F0C6
:100AA200002426F0772312F4009432D1172E7EE12F
:100AB200112032F07A95EE0FFF1F661F111CF9CF3D
:100AC200EF2FF62F612D5F938ADF5F9108954F9389
:100AD200AF01FD01DA01AB01BC01CA01402D012CBD
:100AE200142E4F910895EA0FFB1F681F0895E09599
:100AF200F0956095EF5FFF4F6F4F08955F9381DF31
:100B0200903871F150E8152604C05F937ADF90386F
:100B120039F1703821F1572F591B2BF112F4D7DF1D
:100B2200FACF583118F0AA27BB278827583028F067
:100B3200AB2FB82F88275850F9CF552329F0869527
:100B4200B795A7955A95D9F7502D512572F0CBDF5D
:100B520038F46795F795E795739513F420C0B7DFDE
:100B62003EDF5F910895D8F7FBCFEA1BFB0B680BC2
:100B720051F010F40094BBDF662392F3EE0FFF1FD7
:100B8200661F7A95CBF7EE27FF27662777275F91B7
:100B92000895EFEFFFEF6FE77FEF5F910895EFEFBB
:100BA200FFEF6FE77FE75F9108955F932ADF703869
:100BB20051F3903841F301240894791F23F41CF374
:100BC20000203AF3ECCF0F921F932F933F934F9352
:100BD200112722279927689FA0018F9F302D410D51
:100BE200591F6B9F300D411D591F8E9F27D0BF9FEC
:100BF20025D06A9F23D0BE9F1DD0AF9F1BD0AE9F32
:100C0200110D291F391F491F591FE32FF42F652F7B
:100C1200522F4F913F912F911F910F9066232AF0EF
:100C2200550FEE1FFF1F661F02C073954BF2CDDEFC
:100C32005F910895100D211D391F02C0200D311D35
:100C4200491F591F08955F93DCDE703821F411208B
:100C52000AF49FCFA4CF903809F495CF01240894C9
:100C6200970B1BF4D4F30020F3CF792F1F932F930C
:100C72003F934F93112411272227332744275527C7
:100C820090E2AE17BF078607410730F0AE1BBF0BDD
:100C9200860B410B089401C08894551F221F331FF5
:100CA200111CAA1FBB1F881F441F9A9551F7F901F7
:100CB200612D4F913F912F911F91662332F0550F75
:100CC200EE1FFF1F661F7A9543F27FDE5F91089544
:100CD20099239AF0772342F0971748F029F4AE1738
:100CE200BF07860720F031F098948894089598946D
:100CF200089408951894889408957723C2F7971753
:100D020098F3A9F7EA17FB07680788F399F3ECCF82
:100D1200F09560957095E195FF4F6F4F7F4F089565
:100D22006F2F660F660B762F0895EA17E1E009F43C
:100D3200EE2708950024112490E1AA0FBB1F001C86
:100D4200111C0E1A1F0A18F40E0E1F1E01C0A160FC
:100D52009A9599F7FD01D0010895E881F9816A8198
:100D62007B810895A881B9818A819B810895E88356
:100D7200F9836A837B8308957A936A93FA93EA9359
:100D820008959A938A93BA93AA930895182E862F58
:100D9200612D192E972F712D1B2EBF2FF12D1A2E7B
:100DA200AE2FE12D0895129602D0BF01129711962F
:100DB20002D0FE2F1197F999FECFFF93FFB7F89457
:100DC200A1BDB2BDF89AE0B5FFBFFF91089507D06B
:100DD20012960F01FB0103D0F0011297089507D07C
:100DE2001196EF93EF2F03D0EF9111970895F99B8E
:100DF20002C0A895FCCF9FB7F894A1BDB2BDF89AE6
:100E020080B5E81719F0E0BDFA9AF99A9FBF0895E4
:00000001FF
